:100000000C942A000C9434000C9434000C943400AA
:100010000C9434000C9434000C9434000C94340090
:100020000C9434000C9434000C9434000C94340080
:100030000C9434000C9434000C9434000C94340070
:100040000C9434000C9434000C9434000C94340060
:100050000C94340011241FBECFE5D8E0DEBFCDBF25
:100060000E9449000C94C5000C9400008FB9779B46
:10007000FECFC49AC4980895C899FECFC999FCCF01
:10008000CA99FACF8FE39CE90197F1F700C000000D
:1000900008958AB3887F8ABB8BB3887F8BBB87B375
:1000A000806B87BBC49880E58DB980E00E943600E4
:1000B0000AC0C99B42C08FE39CE90197F1F700C0D9
:1000C0000000C99922C0C89BF4CF8FE39CE9019737
:1000D000F1F700C00000C89BF6CF80E00E94360018
:1000E0000E943C00D8E0C0E0C695C0688C2F0E94FA
:1000F00036009FE729EA83E0915020408040E1F7F5
:1001000000C00000D15081F7DECF80E00E943600B1
:100110000E943C00D8E0C0E0CC0FC1608C2F0E9450
:1001200036009FE729EA83E0915020408040E1F7C4
:1001300000C00000D15081F7C6CFCA9BC4CF8FE367
:100140009CE90197F1F700C00000CA9BBCCF0E9458
:100150003C00C5E08FEF0E9436009FEF22E587E06C
:10016000915020408040E1F700C0000080E00E94F4
:1001700036009FEF22E587E0915020408040E1F774
:0E01800000C00000C15031F79ECFF894FFCFB1
:00000001FF
