:100000000C942A000C9434000C9434000C943400AA
:100010000C9434000C9434000C9434000C94340090
:100020000C9434000C9434000C9434000C94340080
:100030000C9434000C9434000C9434000C94340070
:100040000C9434000C9434000C9434000C94340060
:100050000C94340011241FBECFE5D8E0DEBFCDBF25
:100060000E94BD000C94E8000C94000087B3806BE4
:1000700087BBC49880E58DB908958AB3887F8ABB11
:100080008BB3887F8BBB08958FB9779BFECF089584
:10009000C49AC49808950E9444000E94480008959C
:1000A00029B330E0A90102C0559547958A95E2F73A
:1000B000CA018170089580E00E9450008111FBCF39
:1000C00081E00E9450008111F6CF82E00E94500032
:1000D0008111F1CF8FE39CE90197F1F700C0000097
:1000E0000895CF93DF93D8E0C0E0C695C0688C2F09
:1000F0000E944B002FE789EA93E021508040904016
:10010000E1F700C00000D15081F7DF91CF91089551
:10011000CF93DF93D8E0C0E0CC0FC1608C2F0E945A
:100120004B002FE789EA93E0215080409040E1F7AF
:1001300000C00000D15081F7DF91CF910895CF9397
:10014000C5E08FEF0E944B002FEF82E597E0215032
:1001500080409040E1F700C0000080E00E944B002A
:100160002FEF82E597E0215080409040E1F700C0FA
:100170000000C15031F7CF9108950E9436000E94CF
:100180003D0080E00E944B000CC081E00E945000C6
:100190008823A1F080E00E944B000E945B000E9437
:1001A000880080E00E945000882379F380E00E945C
:1001B0004B000E945B000E947100F3CF82E00E941E
:1001C0005000882371F30E945B000E949F00E9CFDA
:0401D000F894FFCFD1
:00000001FF
