:100000000C942A000C9434000C9434000C943400AA
:100010000C9434000C9434000C9434000C94340090
:100020000C9434000C9434000C9434000C94340080
:100030000C9434000C9434000C9434000C94340070
:100040000C9434000C9434000C9434000C94340060
:100050000C94340011241FBECFE5D8E0DEBFCDBF25
:100060000E944C000C94D4000C9400008FB9779B34
:10007000FECF0895C49AC49808959C012150310977
:10008000892B49F08FEC97E00197F1F700C0000051
:1000900021503109B8F7089587B3806B87BBC498A6
:1000A00080E58DB98AB3887F8ABB8BB3887F8BBB91
:1000B00080E00E9436000E943A000F2EF3E0FF2EEF
:1000C000F02D02E011E00AC0C99B3AC08FE39CE921
:1000D0000197F1F700C00000C99964C0C89BF4CF34
:1000E0008FE39CE90197F1F700C00000C89BF6CFB1
:1000F000C12F80E00E9436000E943A00C899FECFCE
:10010000C999FCCFCA99FACF8FE39CE90197F1F71F
:1001100000C00000C23001F1C33071F1C130F1F60E
:10012000D8E0C0E0C695C0688C2F0E9436000E94BF
:100130003A0086E990E00E943D00D15099F7CECF79
:10014000CA9BCCCF8FE39CE90197F1F700C0000078
:10015000CA9BC4CFCF2DCDCFD8E0C0E0CC0FC160BB
:100160008C2F0E9436000E943A0086E990E00E949F
:100170003D00D15099F7B2CFC5E08FEF0E94360015
:100180000E943A008CE291E00E943D0080E00E94D3
:1001900036000E943A008CE291E00E943D00C1507E
:0C01A00061F79CCFC02FA5CFF894FFCFD3
:00000001FF

